{
  "_format": "hh-sol-artifact-1",
  "contractName": "MyEpicNFT",
  "sourceName": "contracts/MyEpicNFT.sol",
  "abi": [
    {
      "inputs": [],
      "stateMutability": "nonpayable",
      "type": "constructor"
    },
    {
      "anonymous": false,
      "inputs": [
        {
          "indexed": true,
          "internalType": "address",
          "name": "owner",
          "type": "address"
        },
        {
          "indexed": true,
          "internalType": "address",
          "name": "approved",
          "type": "address"
        },
        {
          "indexed": true,
          "internalType": "uint256",
          "name": "tokenId",
          "type": "uint256"
        }
      ],
      "name": "Approval",
      "type": "event"
    },
    {
      "anonymous": false,
      "inputs": [
        {
          "indexed": true,
          "internalType": "address",
          "name": "owner",
          "type": "address"
        },
        {
          "indexed": true,
          "internalType": "address",
          "name": "operator",
          "type": "address"
        },
        {
          "indexed": false,
          "internalType": "bool",
          "name": "approved",
          "type": "bool"
        }
      ],
      "name": "ApprovalForAll",
      "type": "event"
    },
    {
      "anonymous": false,
      "inputs": [
        {
          "indexed": false,
          "internalType": "address",
          "name": "sender",
          "type": "address"
        },
        {
          "indexed": false,
          "internalType": "uint256",
          "name": "tokenId",
          "type": "uint256"
        }
      ],
      "name": "NewEpicNFTMinted",
      "type": "event"
    },
    {
      "anonymous": false,
      "inputs": [
        {
          "indexed": true,
          "internalType": "address",
          "name": "from",
          "type": "address"
        },
        {
          "indexed": true,
          "internalType": "address",
          "name": "to",
          "type": "address"
        },
        {
          "indexed": true,
          "internalType": "uint256",
          "name": "tokenId",
          "type": "uint256"
        }
      ],
      "name": "Transfer",
      "type": "event"
    },
    {
      "inputs": [
        {
          "internalType": "address",
          "name": "to",
          "type": "address"
        },
        {
          "internalType": "uint256",
          "name": "tokenId",
          "type": "uint256"
        }
      ],
      "name": "approve",
      "outputs": [],
      "stateMutability": "nonpayable",
      "type": "function"
    },
    {
      "inputs": [
        {
          "internalType": "address",
          "name": "owner",
          "type": "address"
        }
      ],
      "name": "balanceOf",
      "outputs": [
        {
          "internalType": "uint256",
          "name": "",
          "type": "uint256"
        }
      ],
      "stateMutability": "view",
      "type": "function"
    },
    {
      "inputs": [
        {
          "internalType": "uint256",
          "name": "tokenId",
          "type": "uint256"
        }
      ],
      "name": "getApproved",
      "outputs": [
        {
          "internalType": "address",
          "name": "",
          "type": "address"
        }
      ],
      "stateMutability": "view",
      "type": "function"
    },
    {
      "inputs": [],
      "name": "getTotalMinted",
      "outputs": [
        {
          "internalType": "uint256",
          "name": "",
          "type": "uint256"
        }
      ],
      "stateMutability": "view",
      "type": "function"
    },
    {
      "inputs": [
        {
          "internalType": "address",
          "name": "owner",
          "type": "address"
        },
        {
          "internalType": "address",
          "name": "operator",
          "type": "address"
        }
      ],
      "name": "isApprovedForAll",
      "outputs": [
        {
          "internalType": "bool",
          "name": "",
          "type": "bool"
        }
      ],
      "stateMutability": "view",
      "type": "function"
    },
    {
      "inputs": [],
      "name": "makeAnEpicNFT",
      "outputs": [],
      "stateMutability": "nonpayable",
      "type": "function"
    },
    {
      "inputs": [],
      "name": "name",
      "outputs": [
        {
          "internalType": "string",
          "name": "",
          "type": "string"
        }
      ],
      "stateMutability": "view",
      "type": "function"
    },
    {
      "inputs": [
        {
          "internalType": "uint256",
          "name": "tokenId",
          "type": "uint256"
        }
      ],
      "name": "ownerOf",
      "outputs": [
        {
          "internalType": "address",
          "name": "",
          "type": "address"
        }
      ],
      "stateMutability": "view",
      "type": "function"
    },
    {
      "inputs": [
        {
          "internalType": "uint256",
          "name": "tokenId",
          "type": "uint256"
        }
      ],
      "name": "pickRandomColor",
      "outputs": [
        {
          "internalType": "string",
          "name": "",
          "type": "string"
        }
      ],
      "stateMutability": "view",
      "type": "function"
    },
    {
      "inputs": [
        {
          "internalType": "uint256",
          "name": "tokenId",
          "type": "uint256"
        }
      ],
      "name": "pickRandomFirstWord",
      "outputs": [
        {
          "internalType": "string",
          "name": "",
          "type": "string"
        }
      ],
      "stateMutability": "view",
      "type": "function"
    },
    {
      "inputs": [
        {
          "internalType": "uint256",
          "name": "tokenId",
          "type": "uint256"
        }
      ],
      "name": "pickRandomSecondWord",
      "outputs": [
        {
          "internalType": "string",
          "name": "",
          "type": "string"
        }
      ],
      "stateMutability": "view",
      "type": "function"
    },
    {
      "inputs": [
        {
          "internalType": "uint256",
          "name": "tokenId",
          "type": "uint256"
        }
      ],
      "name": "pickRandomThirdWord",
      "outputs": [
        {
          "internalType": "string",
          "name": "",
          "type": "string"
        }
      ],
      "stateMutability": "view",
      "type": "function"
    },
    {
      "inputs": [
        {
          "internalType": "address",
          "name": "from",
          "type": "address"
        },
        {
          "internalType": "address",
          "name": "to",
          "type": "address"
        },
        {
          "internalType": "uint256",
          "name": "tokenId",
          "type": "uint256"
        }
      ],
      "name": "safeTransferFrom",
      "outputs": [],
      "stateMutability": "nonpayable",
      "type": "function"
    },
    {
      "inputs": [
        {
          "internalType": "address",
          "name": "from",
          "type": "address"
        },
        {
          "internalType": "address",
          "name": "to",
          "type": "address"
        },
        {
          "internalType": "uint256",
          "name": "tokenId",
          "type": "uint256"
        },
        {
          "internalType": "bytes",
          "name": "_data",
          "type": "bytes"
        }
      ],
      "name": "safeTransferFrom",
      "outputs": [],
      "stateMutability": "nonpayable",
      "type": "function"
    },
    {
      "inputs": [
        {
          "internalType": "address",
          "name": "operator",
          "type": "address"
        },
        {
          "internalType": "bool",
          "name": "approved",
          "type": "bool"
        }
      ],
      "name": "setApprovalForAll",
      "outputs": [],
      "stateMutability": "nonpayable",
      "type": "function"
    },
    {
      "inputs": [
        {
          "internalType": "bytes4",
          "name": "interfaceId",
          "type": "bytes4"
        }
      ],
      "name": "supportsInterface",
      "outputs": [
        {
          "internalType": "bool",
          "name": "",
          "type": "bool"
        }
      ],
      "stateMutability": "view",
      "type": "function"
    },
    {
      "inputs": [],
      "name": "symbol",
      "outputs": [
        {
          "internalType": "string",
          "name": "",
          "type": "string"
        }
      ],
      "stateMutability": "view",
      "type": "function"
    },
    {
      "inputs": [
        {
          "internalType": "uint256",
          "name": "tokenId",
          "type": "uint256"
        }
      ],
      "name": "tokenURI",
      "outputs": [
        {
          "internalType": "string",
          "name": "",
          "type": "string"
        }
      ],
      "stateMutability": "view",
      "type": "function"
    },
    {
      "inputs": [
        {
          "internalType": "address",
          "name": "from",
          "type": "address"
        },
        {
          "internalType": "address",
          "name": "to",
          "type": "address"
        },
        {
          "internalType": "uint256",
          "name": "tokenId",
          "type": "uint256"
        }
      ],
      "name": "transferFrom",
      "outputs": [],
      "stateMutability": "nonpayable",
      "type": "function"
    }
  ],
  "bytecode": "0x608060405260405180610100016040528060d381526020016200474360d39139600890805190602001906200003692919062000810565b506040518060800160405280605681526020016200481660569139600990805190602001906200006892919062000810565b506040518060c001604052806040518060400160405280600681526020017f52616e646f6d000000000000000000000000000000000000000000000000000081525081526020016040518060400160405280600481526020017f426c75650000000000000000000000000000000000000000000000000000000081525081526020016040518060400160405280600481526020017f4461726b0000000000000000000000000000000000000000000000000000000081525081526020016040518060400160405280600981526020017f4576616e67656c6963000000000000000000000000000000000000000000000081525081526020016040518060400160405280600681526020017f46616c636f6e000000000000000000000000000000000000000000000000000081525081526020016040518060400160405280600481526020017f4a65646900000000000000000000000000000000000000000000000000000000815250815250600a906006620001e6929190620008a1565b506040518060c001604052806040518060400160405280600581526020017f506173746100000000000000000000000000000000000000000000000000000081525081526020016040518060400160405280600481526020017f4d6574610000000000000000000000000000000000000000000000000000000081525081526020016040518060400160405280600681526020017f426967676572000000000000000000000000000000000000000000000000000081525081526020016040518060400160405280600681526020017f556e64656164000000000000000000000000000000000000000000000000000081525081526020016040518060400160405280600581526020017f447275696400000000000000000000000000000000000000000000000000000081525081526020016040518060400160405280600581526020017f4861707079000000000000000000000000000000000000000000000000000000815250815250600b90600662000364929190620008a1565b506040518060c001604052806040518060400160405280600481526020017f4c6f72640000000000000000000000000000000000000000000000000000000081525081526020016040518060400160405280600481526020017f4b696e670000000000000000000000000000000000000000000000000000000081525081526020016040518060400160405280600981526020017f547269636b73746572000000000000000000000000000000000000000000000081525081526020016040518060400160405280600581526020017f4e696e6a6100000000000000000000000000000000000000000000000000000081525081526020016040518060400160405280600481526020017f4d6f6e6b0000000000000000000000000000000000000000000000000000000081525081526020016040518060400160405280600681526020017f57697a6172640000000000000000000000000000000000000000000000000000815250815250600c906006620004e2929190620008a1565b506040518060c001604052806040518060400160405280600781526020017f233345303635460000000000000000000000000000000000000000000000000081525081526020016040518060400160405280600781526020017f233730304239370000000000000000000000000000000000000000000000000081525081526020016040518060400160405280600781526020017f233845303543320000000000000000000000000000000000000000000000000081525081526020016040518060400160405280600781526020017f233030304436420000000000000000000000000000000000000000000000000081525081526020016040518060400160405280600781526020017f233943313945300000000000000000000000000000000000000000000000000081525081526020016040518060400160405280600781526020017f2330303030303000000000000000000000000000000000000000000000000000815250815250600d90600662000660929190620008a1565b503480156200066e57600080fd5b506040518060400160405280600981526020017f5371756172654e465400000000000000000000000000000000000000000000008152506040518060400160405280600681526020017f53515541524500000000000000000000000000000000000000000000000000008152508160009080519060200190620006f392919062000810565b5080600190805190602001906200070c92919062000810565b5050506200073e60405180606001604052806023815260200162004720602391396200074460201b620014671760201c565b62000ac2565b620007e4816040516024016200075b9190620009d6565b6040516020818303038152906040527f41304fac000000000000000000000000000000000000000000000000000000007bffffffffffffffffffffffffffffffffffffffffffffffffffffffff19166020820180517bffffffffffffffffffffffffffffffffffffffffffffffffffffffff8381831617835250505050620007e760201b60201c565b50565b60008151905060006a636f6e736f6c652e6c6f679050602083016000808483855afa5050505050565b8280546200081e9062000a4c565b90600052602060002090601f0160209004810192826200084257600085556200088e565b82601f106200085d57805160ff19168380011785556200088e565b828001600101855582156200088e579182015b828111156200088d57825182559160200191906001019062000870565b5b5090506200089d919062000908565b5090565b828054828255906000526020600020908101928215620008f5579160200282015b82811115620008f4578251829080519060200190620008e392919062000810565b5091602001919060010190620008c2565b5b50905062000904919062000927565b5090565b5b808211156200092357600081600090555060010162000909565b5090565b5b808211156200094b57600081816200094191906200094f565b5060010162000928565b5090565b5080546200095d9062000a4c565b6000825580601f1062000971575062000992565b601f01602090049060005260206000209081019062000991919062000908565b5b50565b6000620009a282620009fa565b620009ae818562000a05565b9350620009c081856020860162000a16565b620009cb8162000ab1565b840191505092915050565b60006020820190508181036000830152620009f2818462000995565b905092915050565b600081519050919050565b600082825260208201905092915050565b60005b8381101562000a3657808201518184015260208101905062000a19565b8381111562000a46576000848401525b50505050565b6000600282049050600182168062000a6557607f821691505b6020821081141562000a7c5762000a7b62000a82565b5b50919050565b7f4e487b7100000000000000000000000000000000000000000000000000000000600052602260045260246000fd5b6000601f19601f8301169050919050565b613c4e8062000ad26000396000f3fe608060405234801561001057600080fd5b50600436106101215760003560e01c80636352211e116100ad578063b88d4fde11610071578063b88d4fde14610340578063c575757a1461035c578063c87b56dd1461038c578063de9d132f146103bc578063e985e9c5146103c657610121565b80636352211e1461027657806370a08231146102a657806395d89b41146102d6578063a22cb465146102f4578063b187301f1461031057610121565b80630ca1c5c9116100f45780630ca1c5c9146101c057806323b872dd146101de5780632de38d68146101fa57806342842e0e1461022a578063514dc8c61461024657610121565b806301ffc9a71461012657806306fdde0314610156578063081812fc14610174578063095ea7b3146101a4575b600080fd5b610140600480360381019061013b9190612796565b6103f6565b60405161014d9190613474565b60405180910390f35b61015e6104d8565b60405161016b919061348f565b60405180910390f35b61018e600480360381019061018991906127e8565b61056a565b60405161019b91906133e4565b60405180910390f35b6101be60048036038101906101b9919061275a565b6105ef565b005b6101c8610707565b6040516101d5919061373f565b60405180910390f35b6101f860048036038101906101f39190612654565b610711565b005b610214600480360381019061020f91906127e8565b610771565b604051610221919061348f565b60405180910390f35b610244600480360381019061023f9190612654565b61088f565b005b610260600480360381019061025b91906127e8565b6108af565b60405161026d919061348f565b60405180910390f35b610290600480360381019061028b91906127e8565b6109cd565b60405161029d91906133e4565b60405180910390f35b6102c060048036038101906102bb91906125ef565b610a7f565b6040516102cd919061373f565b60405180910390f35b6102de610b37565b6040516102eb919061348f565b60405180910390f35b61030e6004803603810190610309919061271e565b610bc9565b005b61032a600480360381019061032591906127e8565b610d4a565b604051610337919061348f565b60405180910390f35b61035a600480360381019061035591906126a3565b610e68565b005b610376600480360381019061037191906127e8565b610eca565b604051610383919061348f565b60405180910390f35b6103a660048036038101906103a191906127e8565b610fe8565b6040516103b3919061348f565b60405180910390f35b6103c461113a565b005b6103e060048036038101906103db9190612618565b6113d3565b6040516103ed9190613474565b60405180910390f35b60007f80ac58cd000000000000000000000000000000000000000000000000000000007bffffffffffffffffffffffffffffffffffffffffffffffffffffffff1916827bffffffffffffffffffffffffffffffffffffffffffffffffffffffff191614806104c157507f5b5e139f000000000000000000000000000000000000000000000000000000007bffffffffffffffffffffffffffffffffffffffffffffffffffffffff1916827bffffffffffffffffffffffffffffffffffffffffffffffffffffffff1916145b806104d157506104d082611500565b5b9050919050565b6060600080546104e7906139de565b80601f0160208091040260200160405190810160405280929190818152602001828054610513906139de565b80156105605780601f1061053557610100808354040283529160200191610560565b820191906000526020600020905b81548152906001019060200180831161054357829003601f168201915b5050505050905090565b60006105758261156a565b6105b4576040517f08c379a00000000000000000000000000000000000000000000000000000000081526004016105ab9061369f565b60405180910390fd5b6004600083815260200190815260200160002060009054906101000a900473ffffffffffffffffffffffffffffffffffffffff169050919050565b60006105fa826109cd565b90508073ffffffffffffffffffffffffffffffffffffffff168373ffffffffffffffffffffffffffffffffffffffff16141561066b576040517f08c379a0000000000000000000000000000000000000000000000000000000008152600401610662906136ff565b60405180910390fd5b8073ffffffffffffffffffffffffffffffffffffffff1661068a6115d6565b73ffffffffffffffffffffffffffffffffffffffff1614806106b957506106b8816106b36115d6565b6113d3565b5b6106f8576040517f08c379a00000000000000000000000000000000000000000000000000000000081526004016106ef906135df565b60405180910390fd5b61070283836115de565b505050565b6000600e54905090565b61072261071c6115d6565b82611697565b610761576040517f08c379a00000000000000000000000000000000000000000000000000000000081526004016107589061371f565b60405180910390fd5b61076c838383611775565b505050565b606060006107a5610781846119d1565b604051602001610791919061337e565b604051602081830303815290604052611b7e565b9050600a80549050816107b89190613a59565b9050600a81815481106107f4577f4e487b7100000000000000000000000000000000000000000000000000000000600052603260045260246000fd5b906000526020600020018054610809906139de565b80601f0160208091040260200160405190810160405280929190818152602001828054610835906139de565b80156108825780601f1061085757610100808354040283529160200191610882565b820191906000526020600020905b81548152906001019060200180831161086557829003601f168201915b5050505050915050919050565b6108aa83838360405180602001604052806000815250610e68565b505050565b606060006108e36108bf846119d1565b6040516020016108cf91906133c2565b604051602081830303815290604052611b7e565b9050600d80549050816108f69190613a59565b9050600d8181548110610932577f4e487b7100000000000000000000000000000000000000000000000000000000600052603260045260246000fd5b906000526020600020018054610947906139de565b80601f0160208091040260200160405190810160405280929190818152602001828054610973906139de565b80156109c05780601f10610995576101008083540402835291602001916109c0565b820191906000526020600020905b8154815290600101906020018083116109a357829003601f168201915b5050505050915050919050565b6000806002600084815260200190815260200160002060009054906101000a900473ffffffffffffffffffffffffffffffffffffffff169050600073ffffffffffffffffffffffffffffffffffffffff168173ffffffffffffffffffffffffffffffffffffffff161415610a76576040517f08c379a0000000000000000000000000000000000000000000000000000000008152600401610a6d9061361f565b60405180910390fd5b80915050919050565b60008073ffffffffffffffffffffffffffffffffffffffff168273ffffffffffffffffffffffffffffffffffffffff161415610af0576040517f08c379a0000000000000000000000000000000000000000000000000000000008152600401610ae7906135ff565b60405180910390fd5b600360008373ffffffffffffffffffffffffffffffffffffffff1673ffffffffffffffffffffffffffffffffffffffff168152602001908152602001600020549050919050565b606060018054610b46906139de565b80601f0160208091040260200160405190810160405280929190818152602001828054610b72906139de565b8015610bbf5780601f10610b9457610100808354040283529160200191610bbf565b820191906000526020600020905b815481529060010190602001808311610ba257829003601f168201915b5050505050905090565b610bd16115d6565b73ffffffffffffffffffffffffffffffffffffffff168273ffffffffffffffffffffffffffffffffffffffff161415610c3f576040517f08c379a0000000000000000000000000000000000000000000000000000000008152600401610c369061359f565b60405180910390fd5b8060056000610c4c6115d6565b73ffffffffffffffffffffffffffffffffffffffff1673ffffffffffffffffffffffffffffffffffffffff16815260200190815260200160002060008473ffffffffffffffffffffffffffffffffffffffff1673ffffffffffffffffffffffffffffffffffffffff16815260200190815260200160002060006101000a81548160ff0219169083151502179055508173ffffffffffffffffffffffffffffffffffffffff16610cf96115d6565b73ffffffffffffffffffffffffffffffffffffffff167f17307eab39ab6107e8899845ad3d59bd9653f200f220920489ca2b5937696c3183604051610d3e9190613474565b60405180910390a35050565b60606000610d7e610d5a846119d1565b604051602001610d6a9190613317565b604051602081830303815290604052611b7e565b9050600b8054905081610d919190613a59565b9050600b8181548110610dcd577f4e487b7100000000000000000000000000000000000000000000000000000000600052603260045260246000fd5b906000526020600020018054610de2906139de565b80601f0160208091040260200160405190810160405280929190818152602001828054610e0e906139de565b8015610e5b5780601f10610e3057610100808354040283529160200191610e5b565b820191906000526020600020905b815481529060010190602001808311610e3e57829003601f168201915b5050505050915050919050565b610e79610e736115d6565b83611697565b610eb8576040517f08c379a0000000000000000000000000000000000000000000000000000000008152600401610eaf9061371f565b60405180910390fd5b610ec484848484611bb1565b50505050565b60606000610efe610eda846119d1565b604051602001610eea91906132f5565b604051602081830303815290604052611b7e565b9050600c8054905081610f119190613a59565b9050600c8181548110610f4d577f4e487b7100000000000000000000000000000000000000000000000000000000600052603260045260246000fd5b906000526020600020018054610f62906139de565b80601f0160208091040260200160405190810160405280929190818152602001828054610f8e906139de565b8015610fdb5780601f10610fb057610100808354040283529160200191610fdb565b820191906000526020600020905b815481529060010190602001808311610fbe57829003601f168201915b5050505050915050919050565b6060610ff38261156a565b611032576040517f08c379a00000000000000000000000000000000000000000000000000000000081526004016110299061367f565b60405180910390fd5b6000600660008481526020019081526020016000208054611052906139de565b80601f016020809104026020016040519081016040528092919081815260200182805461107e906139de565b80156110cb5780601f106110a0576101008083540402835291602001916110cb565b820191906000526020600020905b8154815290600101906020018083116110ae57829003601f168201915b5050505050905060006110dc611c0d565b90506000815114156110f2578192505050611135565b60008251111561112757808260405160200161110f929190613257565b60405160208183030381529060405292505050611135565b61113084611c24565b925050505b919050565b60006111466007611ccb565b9050600061115382610771565b9050600061116083610d4a565b9050600061116d84610eca565b905060008383836040516020016111869392919061327b565b604051602081830303815290604052905060006111a2866108af565b905060006008826009856040516020016111bf94939291906132ac565b60405160208183030381529060405290506000611204846111df84611cd9565b6040516020016111f0929190613339565b604051602081830303815290604052611cd9565b905060008160405160200161121991906133a0565b60405160208183030381529060405290506112686040518060400160405280601581526020017f0a2d2d2d2d2d2d2d2d2d2d2d2d2d2d2d2d2d2d2d2d0000000000000000000000815250611467565b61127181611467565b6112af6040518060400160405280601581526020017f2d2d2d2d2d2d2d2d2d2d2d2d2d2d2d2d2d2d2d2d0a0000000000000000000000815250611467565b6112b9338a611e97565b6112c38982611eb5565b6112cd6007611f29565b6112f0604051806060016040528060258152602001613bb4602591398a33611f3f565b6001600e60008282546113039190613813565b9250508190555061134b6040518060400160405280601881526020017f546f74616c204e4654206d696e746564202564202f2035300000000000000000815250600e54611fde565b7febb98688741ffa4c7589bf325de30cf7becb63de567842e1ccdb6cb949fdc82c338a60405161137c92919061344b565b60405180910390a160328911156113c8576040517f08c379a00000000000000000000000000000000000000000000000000000000081526004016113bf9061355f565b60405180910390fd5b505050505050505050565b6000600560008473ffffffffffffffffffffffffffffffffffffffff1673ffffffffffffffffffffffffffffffffffffffff16815260200190815260200160002060008373ffffffffffffffffffffffffffffffffffffffff1673ffffffffffffffffffffffffffffffffffffffff16815260200190815260200160002060009054906101000a900460ff16905092915050565b6114fd8160405160240161147b919061348f565b6040516020818303038152906040527f41304fac000000000000000000000000000000000000000000000000000000007bffffffffffffffffffffffffffffffffffffffffffffffffffffffff19166020820180517bffffffffffffffffffffffffffffffffffffffffffffffffffffffff838183161783525050505061207a565b50565b60007f01ffc9a7000000000000000000000000000000000000000000000000000000007bffffffffffffffffffffffffffffffffffffffffffffffffffffffff1916827bffffffffffffffffffffffffffffffffffffffffffffffffffffffff1916149050919050565b60008073ffffffffffffffffffffffffffffffffffffffff166002600084815260200190815260200160002060009054906101000a900473ffffffffffffffffffffffffffffffffffffffff1673ffffffffffffffffffffffffffffffffffffffff1614159050919050565b600033905090565b816004600083815260200190815260200160002060006101000a81548173ffffffffffffffffffffffffffffffffffffffff021916908373ffffffffffffffffffffffffffffffffffffffff160217905550808273ffffffffffffffffffffffffffffffffffffffff16611651836109cd565b73ffffffffffffffffffffffffffffffffffffffff167f8c5be1e5ebec7d5bd14f71427d1e84f3dd0314c0f7b2291e5b200ac8c7c3b92560405160405180910390a45050565b60006116a28261156a565b6116e1576040517f08c379a00000000000000000000000000000000000000000000000000000000081526004016116d8906135bf565b60405180910390fd5b60006116ec836109cd565b90508073ffffffffffffffffffffffffffffffffffffffff168473ffffffffffffffffffffffffffffffffffffffff16148061175b57508373ffffffffffffffffffffffffffffffffffffffff166117438461056a565b73ffffffffffffffffffffffffffffffffffffffff16145b8061176c575061176b81856113d3565b5b91505092915050565b8273ffffffffffffffffffffffffffffffffffffffff16611795826109cd565b73ffffffffffffffffffffffffffffffffffffffff16146117eb576040517f08c379a00000000000000000000000000000000000000000000000000000000081526004016117e2906136bf565b60405180910390fd5b600073ffffffffffffffffffffffffffffffffffffffff168273ffffffffffffffffffffffffffffffffffffffff16141561185b576040517f08c379a00000000000000000000000000000000000000000000000000000000081526004016118529061357f565b60405180910390fd5b6118668383836120a3565b6118716000826115de565b6001600360008573ffffffffffffffffffffffffffffffffffffffff1673ffffffffffffffffffffffffffffffffffffffff16815260200190815260200160002060008282546118c191906138f4565b925050819055506001600360008473ffffffffffffffffffffffffffffffffffffffff1673ffffffffffffffffffffffffffffffffffffffff16815260200190815260200160002060008282546119189190613813565b92505081905550816002600083815260200190815260200160002060006101000a81548173ffffffffffffffffffffffffffffffffffffffff021916908373ffffffffffffffffffffffffffffffffffffffff160217905550808273ffffffffffffffffffffffffffffffffffffffff168473ffffffffffffffffffffffffffffffffffffffff167fddf252ad1be2c89b69c2b068fc378daa952ba7f163c4a11628f55a4df523b3ef60405160405180910390a4505050565b60606000821415611a19576040518060400160405280600181526020017f30000000000000000000000000000000000000000000000000000000000000008152509050611b79565b600082905060005b60008214611a4b578080611a3490613a10565b915050600a82611a449190613869565b9150611a21565b60008167ffffffffffffffff811115611a8d577f4e487b7100000000000000000000000000000000000000000000000000000000600052604160045260246000fd5b6040519080825280601f01601f191660200182016040528015611abf5781602001600182028036833780820191505090505b5090505b60008514611b7257600182611ad891906138f4565b9150600a85611ae79190613a59565b6030611af39190613813565b60f81b818381518110611b2f577f4e487b7100000000000000000000000000000000000000000000000000000000600052603260045260246000fd5b60200101907effffffffffffffffffffffffffffffffffffffffffffffffffffffffffffff1916908160001a905350600a85611b6b9190613869565b9450611ac3565b8093505050505b919050565b600081604051602001611b919190613240565b6040516020818303038152906040528051906020012060001c9050919050565b611bbc848484611775565b611bc8848484846120a8565b611c07576040517f08c379a0000000000000000000000000000000000000000000000000000000008152600401611bfe9061351f565b60405180910390fd5b50505050565b606060405180602001604052806000815250905090565b6060611c2f8261156a565b611c6e576040517f08c379a0000000000000000000000000000000000000000000000000000000008152600401611c65906136df565b60405180910390fd5b6000611c78611c0d565b90506000815111611c985760405180602001604052806000815250611cc3565b80611ca2846119d1565b604051602001611cb3929190613257565b6040516020818303038152906040525b915050919050565b600081600001549050919050565b60606000825190506000811415611d025760405180602001604052806000815250915050611e92565b60006003600283611d139190613813565b611d1d9190613869565b6004611d29919061389a565b90506000602082611d3a9190613813565b67ffffffffffffffff811115611d79577f4e487b7100000000000000000000000000000000000000000000000000000000600052604160045260246000fd5b6040519080825280601f01601f191660200182016040528015611dab5781602001600182028036833780820191505090505b5090506000604051806060016040528060408152602001613bd9604091399050600181016020830160005b86811015611e4f5760038101905062ffffff818a015116603f8160121c168401518060081b905060ff603f83600c1c1686015116810190508060081b905060ff603f8360061c1686015116810190508060081b905060ff603f831686015116810190508060e01b90508084526004840193505050611dd6565b506003860660018114611e695760028114611e7957611e84565b613d3d60f01b6002830352611e84565b603d60f81b60018303525b508484525050819450505050505b919050565b611eb182826040518060200160405280600081525061223f565b5050565b611ebe8261156a565b611efd576040517f08c379a0000000000000000000000000000000000000000000000000000000008152600401611ef49061363f565b60405180910390fd5b80600660008481526020019081526020016000209080519060200190611f2492919061247b565b505050565b6001816000016000828254019250508190555050565b611fd9838383604051602401611f57939291906134e1565b6040516020818303038152906040527fe3849f79000000000000000000000000000000000000000000000000000000007bffffffffffffffffffffffffffffffffffffffffffffffffffffffff19166020820180517bffffffffffffffffffffffffffffffffffffffffffffffffffffffff838183161783525050505061207a565b505050565b6120768282604051602401611ff49291906134b1565b6040516020818303038152906040527f9710a9d0000000000000000000000000000000000000000000000000000000007bffffffffffffffffffffffffffffffffffffffffffffffffffffffff19166020820180517bffffffffffffffffffffffffffffffffffffffffffffffffffffffff838183161783525050505061207a565b5050565b60008151905060006a636f6e736f6c652e6c6f679050602083016000808483855afa5050505050565b505050565b60006120c98473ffffffffffffffffffffffffffffffffffffffff1661229a565b15612232578373ffffffffffffffffffffffffffffffffffffffff1663150b7a026120f26115d6565b8786866040518563ffffffff1660e01b815260040161211494939291906133ff565b602060405180830381600087803b15801561212e57600080fd5b505af192505050801561215f57506040513d601f19601f8201168201806040525081019061215c91906127bf565b60015b6121e2573d806000811461218f576040519150601f19603f3d011682016040523d82523d6000602084013e612194565b606091505b506000815114156121da576040517f08c379a00000000000000000000000000000000000000000000000000000000081526004016121d19061351f565b60405180910390fd5b805181602001fd5b63150b7a0260e01b7bffffffffffffffffffffffffffffffffffffffffffffffffffffffff1916817bffffffffffffffffffffffffffffffffffffffffffffffffffffffff191614915050612237565b600190505b949350505050565b61224983836122ad565b61225660008484846120a8565b612295576040517f08c379a000000000000000000000000000000000000000000000000000000000815260040161228c9061351f565b60405180910390fd5b505050565b600080823b905060008111915050919050565b600073ffffffffffffffffffffffffffffffffffffffff168273ffffffffffffffffffffffffffffffffffffffff16141561231d576040517f08c379a00000000000000000000000000000000000000000000000000000000081526004016123149061365f565b60405180910390fd5b6123268161156a565b15612366576040517f08c379a000000000000000000000000000000000000000000000000000000000815260040161235d9061353f565b60405180910390fd5b612372600083836120a3565b6001600360008473ffffffffffffffffffffffffffffffffffffffff1673ffffffffffffffffffffffffffffffffffffffff16815260200190815260200160002060008282546123c29190613813565b92505081905550816002600083815260200190815260200160002060006101000a81548173ffffffffffffffffffffffffffffffffffffffff021916908373ffffffffffffffffffffffffffffffffffffffff160217905550808273ffffffffffffffffffffffffffffffffffffffff16600073ffffffffffffffffffffffffffffffffffffffff167fddf252ad1be2c89b69c2b068fc378daa952ba7f163c4a11628f55a4df523b3ef60405160405180910390a45050565b828054612487906139de565b90600052602060002090601f0160209004810192826124a957600085556124f0565b82601f106124c257805160ff19168380011785556124f0565b828001600101855582156124f0579182015b828111156124ef5782518255916020019190600101906124d4565b5b5090506124fd9190612501565b5090565b5b8082111561251a576000816000905550600101612502565b5090565b600061253161252c8461378b565b61375a565b90508281526020810184848401111561254957600080fd5b61255484828561399c565b509392505050565b60008135905061256b81613b57565b92915050565b60008135905061258081613b6e565b92915050565b60008135905061259581613b85565b92915050565b6000815190506125aa81613b85565b92915050565b600082601f8301126125c157600080fd5b81356125d184826020860161251e565b91505092915050565b6000813590506125e981613b9c565b92915050565b60006020828403121561260157600080fd5b600061260f8482850161255c565b91505092915050565b6000806040838503121561262b57600080fd5b60006126398582860161255c565b925050602061264a8582860161255c565b9150509250929050565b60008060006060848603121561266957600080fd5b60006126778682870161255c565b93505060206126888682870161255c565b9250506040612699868287016125da565b9150509250925092565b600080600080608085870312156126b957600080fd5b60006126c78782880161255c565b94505060206126d88782880161255c565b93505060406126e9878288016125da565b925050606085013567ffffffffffffffff81111561270657600080fd5b612712878288016125b0565b91505092959194509250565b6000806040838503121561273157600080fd5b600061273f8582860161255c565b925050602061275085828601612571565b9150509250929050565b6000806040838503121561276d57600080fd5b600061277b8582860161255c565b925050602061278c858286016125da565b9150509250929050565b6000602082840312156127a857600080fd5b60006127b684828501612586565b91505092915050565b6000602082840312156127d157600080fd5b60006127df8482850161259b565b91505092915050565b6000602082840312156127fa57600080fd5b6000612808848285016125da565b91505092915050565b61281a81613928565b82525050565b6128298161393a565b82525050565b600061283a826137d0565b61284481856137e6565b93506128548185602086016139ab565b61285d81613b46565b840191505092915050565b6000612873826137db565b61287d81856137f7565b935061288d8185602086016139ab565b61289681613b46565b840191505092915050565b60006128ac826137db565b6128b68185613808565b93506128c68185602086016139ab565b80840191505092915050565b600081546128df816139de565b6128e98186613808565b94506001821660008114612904576001811461291557612948565b60ff19831686528186019350612948565b61291e856137bb565b60005b8381101561294057815481890152600182019150602081019050612921565b838801955050505b50505092915050565b600061295e6032836137f7565b91507f4552433732313a207472616e7366657220746f206e6f6e20455243373231526560008301527f63656976657220696d706c656d656e74657200000000000000000000000000006020830152604082019050919050565b60006129c4601c836137f7565b91507f4552433732313a20746f6b656e20616c7265616479206d696e746564000000006000830152602082019050919050565b6000612a04601c836137f7565b91507f4c696d6974206f66204e465420746f206d696e742072656163686564000000006000830152602082019050919050565b6000612a44600a83613808565b91507f54484952445f574f5244000000000000000000000000000000000000000000006000830152600a82019050919050565b6000612a846024836137f7565b91507f4552433732313a207472616e7366657220746f20746865207a65726f2061646460008301527f72657373000000000000000000000000000000000000000000000000000000006020830152604082019050919050565b6000612aea6019836137f7565b91507f4552433732313a20617070726f766520746f2063616c6c6572000000000000006000830152602082019050919050565b6000612b2a606383613808565b91507f222c20226465736372697074696f6e223a20224120686967686c79206163636c60008301527f61696d656420636f6c6c656374696f6e206f6620737175617265732e222c202260208301527f696d616765223a2022646174613a696d6167652f7376672b786d6c3b6261736560408301527f36342c00000000000000000000000000000000000000000000000000000000006060830152606382019050919050565b6000612bdc600b83613808565b91507f5345434f4e445f574f52440000000000000000000000000000000000000000006000830152600b82019050919050565b6000612c1c602c836137f7565b91507f4552433732313a206f70657261746f7220717565727920666f72206e6f6e657860008301527f697374656e7420746f6b656e00000000000000000000000000000000000000006020830152604082019050919050565b6000612c82600d83613808565b91507f3c2f746578743e3c2f7376673e000000000000000000000000000000000000006000830152600d82019050919050565b6000612cc26038836137f7565b91507f4552433732313a20617070726f76652063616c6c6572206973206e6f74206f7760008301527f6e6572206e6f7220617070726f76656420666f7220616c6c00000000000000006020830152604082019050919050565b6000612d28602a836137f7565b91507f4552433732313a2062616c616e636520717565727920666f7220746865207a6560008301527f726f2061646472657373000000000000000000000000000000000000000000006020830152604082019050919050565b6000612d8e6029836137f7565b91507f4552433732313a206f776e657220717565727920666f72206e6f6e657869737460008301527f656e7420746f6b656e00000000000000000000000000000000000000000000006020830152604082019050919050565b6000612df4602e836137f7565b91507f45524337323155524953746f726167653a2055524920736574206f66206e6f6e60008301527f6578697374656e7420746f6b656e0000000000000000000000000000000000006020830152604082019050919050565b6000612e5a600283613808565b91507f227d0000000000000000000000000000000000000000000000000000000000006000830152600282019050919050565b6000612e9a6020836137f7565b91507f4552433732313a206d696e7420746f20746865207a65726f20616464726573736000830152602082019050919050565b6000612eda6031836137f7565b91507f45524337323155524953746f726167653a2055524920717565727920666f722060008301527f6e6f6e6578697374656e7420746f6b656e0000000000000000000000000000006020830152604082019050919050565b6000612f40602c836137f7565b91507f4552433732313a20617070726f76656420717565727920666f72206e6f6e657860008301527f697374656e7420746f6b656e00000000000000000000000000000000000000006020830152604082019050919050565b6000612fa66029836137f7565b91507f4552433732313a207472616e73666572206f6620746f6b656e2074686174206960008301527f73206e6f74206f776e00000000000000000000000000000000000000000000006020830152604082019050919050565b600061300c602f836137f7565b91507f4552433732314d657461646174613a2055524920717565727920666f72206e6f60008301527f6e6578697374656e7420746f6b656e00000000000000000000000000000000006020830152604082019050919050565b6000613072600a83613808565b91507f7b226e616d65223a2022000000000000000000000000000000000000000000006000830152600a82019050919050565b60006130b26021836137f7565b91507f4552433732313a20617070726f76616c20746f2063757272656e74206f776e6560008301527f72000000000000000000000000000000000000000000000000000000000000006020830152604082019050919050565b6000613118600a83613808565b91507f46495253545f574f5244000000000000000000000000000000000000000000006000830152600a82019050919050565b6000613158601d83613808565b91507f646174613a6170706c69636174696f6e2f6a736f6e3b6261736536342c0000006000830152601d82019050919050565b60006131986031836137f7565b91507f4552433732313a207472616e736665722063616c6c6572206973206e6f74206f60008301527f776e6572206e6f7220617070726f7665640000000000000000000000000000006020830152604082019050919050565b60006131fe600583613808565b91507f434f4c4f520000000000000000000000000000000000000000000000000000006000830152600582019050919050565b61323a81613992565b82525050565b600061324c82846128a1565b915081905092915050565b600061326382856128a1565b915061326f82846128a1565b91508190509392505050565b600061328782866128a1565b915061329382856128a1565b915061329f82846128a1565b9150819050949350505050565b60006132b882876128d2565b91506132c482866128a1565b91506132d082856128d2565b91506132dc82846128a1565b91506132e782612c75565b915081905095945050505050565b600061330082612a37565b915061330c82846128a1565b915081905092915050565b600061332282612bcf565b915061332e82846128a1565b915081905092915050565b600061334482613065565b915061335082856128a1565b915061335b82612b1d565b915061336782846128a1565b915061337282612e4d565b91508190509392505050565b60006133898261310b565b915061339582846128a1565b915081905092915050565b60006133ab8261314b565b91506133b782846128a1565b915081905092915050565b60006133cd826131f1565b91506133d982846128a1565b915081905092915050565b60006020820190506133f96000830184612811565b92915050565b60006080820190506134146000830187612811565b6134216020830186612811565b61342e6040830185613231565b8181036060830152613440818461282f565b905095945050505050565b60006040820190506134606000830185612811565b61346d6020830184613231565b9392505050565b60006020820190506134896000830184612820565b92915050565b600060208201905081810360008301526134a98184612868565b905092915050565b600060408201905081810360008301526134cb8185612868565b90506134da6020830184613231565b9392505050565b600060608201905081810360008301526134fb8186612868565b905061350a6020830185613231565b6135176040830184612811565b949350505050565b6000602082019050818103600083015261353881612951565b9050919050565b60006020820190508181036000830152613558816129b7565b9050919050565b60006020820190508181036000830152613578816129f7565b9050919050565b6000602082019050818103600083015261359881612a77565b9050919050565b600060208201905081810360008301526135b881612add565b9050919050565b600060208201905081810360008301526135d881612c0f565b9050919050565b600060208201905081810360008301526135f881612cb5565b9050919050565b6000602082019050818103600083015261361881612d1b565b9050919050565b6000602082019050818103600083015261363881612d81565b9050919050565b6000602082019050818103600083015261365881612de7565b9050919050565b6000602082019050818103600083015261367881612e8d565b9050919050565b6000602082019050818103600083015261369881612ecd565b9050919050565b600060208201905081810360008301526136b881612f33565b9050919050565b600060208201905081810360008301526136d881612f99565b9050919050565b600060208201905081810360008301526136f881612fff565b9050919050565b60006020820190508181036000830152613718816130a5565b9050919050565b600060208201905081810360008301526137388161318b565b9050919050565b60006020820190506137546000830184613231565b92915050565b6000604051905081810181811067ffffffffffffffff8211171561378157613780613b17565b5b8060405250919050565b600067ffffffffffffffff8211156137a6576137a5613b17565b5b601f19601f8301169050602081019050919050565b60008190508160005260206000209050919050565b600081519050919050565b600081519050919050565b600082825260208201905092915050565b600082825260208201905092915050565b600081905092915050565b600061381e82613992565b915061382983613992565b9250827fffffffffffffffffffffffffffffffffffffffffffffffffffffffffffffffff0382111561385e5761385d613a8a565b5b828201905092915050565b600061387482613992565b915061387f83613992565b92508261388f5761388e613ab9565b5b828204905092915050565b60006138a582613992565b91506138b083613992565b9250817fffffffffffffffffffffffffffffffffffffffffffffffffffffffffffffffff04831182151516156138e9576138e8613a8a565b5b828202905092915050565b60006138ff82613992565b915061390a83613992565b92508282101561391d5761391c613a8a565b5b828203905092915050565b600061393382613972565b9050919050565b60008115159050919050565b60007fffffffff0000000000000000000000000000000000000000000000000000000082169050919050565b600073ffffffffffffffffffffffffffffffffffffffff82169050919050565b6000819050919050565b82818337600083830152505050565b60005b838110156139c95780820151818401526020810190506139ae565b838111156139d8576000848401525b50505050565b600060028204905060018216806139f657607f821691505b60208210811415613a0a57613a09613ae8565b5b50919050565b6000613a1b82613992565b91507fffffffffffffffffffffffffffffffffffffffffffffffffffffffffffffffff821415613a4e57613a4d613a8a565b5b600182019050919050565b6000613a6482613992565b9150613a6f83613992565b925082613a7f57613a7e613ab9565b5b828206905092915050565b7f4e487b7100000000000000000000000000000000000000000000000000000000600052601160045260246000fd5b7f4e487b7100000000000000000000000000000000000000000000000000000000600052601260045260246000fd5b7f4e487b7100000000000000000000000000000000000000000000000000000000600052602260045260246000fd5b7f4e487b7100000000000000000000000000000000000000000000000000000000600052604160045260246000fd5b6000601f19601f8301169050919050565b613b6081613928565b8114613b6b57600080fd5b50565b613b778161393a565b8114613b8257600080fd5b50565b613b8e81613946565b8114613b9957600080fd5b50565b613ba581613992565b8114613bb057600080fd5b5056fe416e204e465420772f20494420257320686173206265656e206d696e74656420746f2025734142434445464748494a4b4c4d4e4f505152535455565758595a6162636465666768696a6b6c6d6e6f707172737475767778797a303132333435363738392b2fa2646970667358221220dca4cf5755825b06002c06fc9d1e6de82f5d6643487ac5781e2825dc9e218cf764736f6c63430008000033546869732069732074686520636f6e7374727563746f7220636f6e736f6c652e6c6f673c73766720786d6c6e733d27687474703a2f2f7777772e77332e6f72672f323030302f73766727207072657365727665417370656374526174696f3d27784d696e594d696e206d656574272076696577426f783d273020302033353020333530273e3c7374796c653e2e62617365207b2066696c6c3a2077686974653b20666f6e742d66616d696c793a2073657269663b20666f6e742d73697a653a20323470783b207d3c2f7374796c653e3c726563742077696474683d273130302527206865696768743d2731303025272066696c6c3d27272f3e3c7465787420783d273530252720793d273530252720636c6173733d27626173652720646f6d696e616e742d626173656c696e653d276d6964646c652720746578742d616e63686f723d276d6964646c65273e",
  "linkReferences": {},
  "deployedLinkReferences": {}
}